:020000040800F2
:10000000C006002029020008F50C0008A10C000819
:10001000F10C0008D5030008D50D00080000000011
:10002000000000000000000000000000FD0C0008BF
:10003000D903000800000000F90C0008010D0008B9
:10004000430200084302000843020008430200087C
:100050004302000843020008DD03000843020008D1
:1000600043020008F50300080D04000843020008DD
:10007000430200084302000843020008430200084C
:10008000430200084302000843020008430200083C
:10009000430200084302000843020008430200082C
:1000A00043020008C90D000843020008430200088B
:1000B000430200084302000843020008430200080C
:1000C00043020008430200084302000843020008FC
:1000D00043020008430200084302000843020008EC
:1000E00043020008430200084302000843020008DC
:1000F00043020008430200084302000843020008CC
:1001000043020008430200084302000843020008BB
:1001100043020008430200084302000843020008AB
:10012000430200084302000843020008430200089B
:10013000430200084302000843020008430200088B
:10014000430200084302000843020008430200087B
:10015000430200084302000843020008430200086B
:10016000430200084302000843020008430200085B
:100170004302000843020008430200080000000098
:10018000430200084302000800F002F800F03CF8C7
:100190000AA090E8000C82448344AAF10107DA45E2
:1001A00001D100F031F8AFF2090EBAE80F0013F0F8
:1001B000010F18BFFB1A43F0010318475C0C000045
:1001C0007C0C0000103A24BF78C878C1FAD85207D6
:1001D00024BF30C830C144BF04680C6070470000C1
:1001E0000023002400250026103A28BF78C1FBD840
:1001F000520728BF30C148BF0B6070471FB500F0E1
:10020000F5FD1FBD10B510BD00F0A9F81146FFF7B0
:10021000F5FF00F0E1FD00F0C7F803B4FFF7F2FFCF
:1002200003BC00F0CFF800000948804709480047A8
:10023000FEE7FEE7FEE7FEE7FEE7FEE7FEE7FEE796
:10024000FEE7FEE704480549054A064B70470000F3
:10025000B50D000889010008C0000020C00600207C
:10026000C0020020C002002053EA020C00F06980A6
:100270002DE9F04B4FF00006002B1FBFB3FA83F5BA
:1002800003FA05F424FA05F65E4012BF1643B2FAEB
:1002900082F502FA05F4C5F120051EBF22FA05FC1D
:1002A00044EA0C04203556EA044C4FEA144418BFC3
:1002B000641C4FF000084FF00009904271EB030CF2
:1002C00039D3002919BFB1FA81F701FA07F6B0FA5C
:1002D00080F700FA07F6C7F120071EBF20FA07FCD7
:1002E00046EA0C062037B6FBF4FCA7EB0507103FE7
:1002F00007F01F0BCBF120062CFA06F60CFA0BFBCD
:1003000044BFB3460026202FA4BF5E464FF0000B2B
:100310005BEA060C08BF4FF0010B19EB0B0948EB29
:100320000608ABFB027C06FB02CC0BFB03CCC01B1C
:1003300071EB0C01C1E70B46024641464846BDE859
:10034000F08B13B5084318BF4FF0FF300146AFF3F1
:100350000080BDE81C407047704770477047754685
:1003600000F02CF8AE4605006946534620F0070021
:10037000854618B020B5FFF765FFBDE820404FF077
:1003800000064FF000074FF000084FF0000BAC469E
:10039000ACE8C009ACE8C009ACE8C009ACE8C009E9
:1003A00021F007018D46704710B50446AFF3008079
:1003B0002046BDE81040FFF730BF000000487047FE
:1003C0001000002001491820ABBEFEE72600020005
:1003D00070470000FEE700007047000010B50120E4
:1003E000012400F023F843F61440C4F20100046035
:1003F00010BD000010B50820082400F017F843F6DF
:100400001440C4F20100046010BD000010B51020BB
:10041000102400F00BF843F61440C4F2010004600D
:1004200010BD0000AFF300807047000043F6144198
:10043000C4F201010A68024214BF08607047FFF766
:10044000F1BF000040F2B800C2F20000006870473F
:1004500040F2000040F2B801C2F20000C2F2000116
:1004600000780A68104408607047000080B543F6C1
:100470000040C4F20200016841F4007101600168AB
:1004800041F480610160032000F074F80F2000F057
:1004900005F800F027F8002080BD000070B540F29C
:1004A0000006C2F2000640F208013278C2F20001F2
:1004B0004FF47A730968B3FBF2F20446B1FBF2F130
:1004C000084600F007FB0F2C4FF0010508D838B99B
:1004D0004FF0FF3021460022002500F01FF8746025
:1004E000284670BD82B0002043F640010190C4F25E
:1004F00002014A6842F480424A604A6802F480423B
:100500000192019A0090086840F0805008600868E5
:1005100000F080500090009802B0704710B54EF681
:100520000C5CCEF2000CDCF80030C3F3022E8EF02F
:100530000704042C28BF0424BEF103034FF0FF3E40
:100540000EFA04F438BF0023A14399400EFA03F3D6
:100550009A43114300F00F0200F160430901043A8D
:1005600003F564436244002848BF02F10C0319708C
:1005700010BD00004EF60C51CEF200010A684FF695
:10058000FF031A4060F30A2242F0806040F0FD70E1
:10059000086070472DE9F041002800F08B8043F699
:1005A0000808C4F202080446D8F8F8030D4600F023
:1005B0000700884207D288F8F853D8F8F80300F00B
:1005C0000700A84276D12068810717D5410705D5D5
:1005D000D8F8001041F4E051C8F80010010705D523
:1005E000D8F8001041F46041C8F80010D8F80010A5
:1005F000A26821F0F0011143C8F80010C0073FD1F4
:10060000D8F8F80300F00700A84207D988F8F85393
:10061000D8F8F80300F00700A8424BD12068410742
:1006200007D5D8F80010E26821F4E0511143C8F86A
:100630000010000708D5D8F80000216920F46040B8
:1006400040EAC100C8F8000000F054F8D8F80010E3
:1006500040F60662C1F30311C0F60002515C40F29D
:10066000080220FA01F140F20400C2F20000006822
:10067000C2F200021160FFF711FF0020BDE8F08117
:100680006068811E022907D258F8081C89015CBFE6
:100690000120BDE8F08111E0012807D158F8081CBD
:1006A00089035CBF0120BDE8F08107E058F8081C11
:1006B000890703D40120BDE8F08100BFD8F80010FD
:1006C00021F003010843C8F80000FFF7BBFE06460F
:1006D00041F28837D8F80000616800F00C00B0EBF8
:1006E000810F8DD0FFF7AEFE801BB842F2D90320F8
:1006F000BDE8F08110B543F60404C4F2020460685A
:1007000000F00C0142F200400829C0F2F40007D0CA
:10071000042918BF10BD41F20020C0F27A0010BDBC
:10072000216801F03F02216823684902C3F3881160
:1007300006D4A1FB00010023FFF796FD07E000BFF0
:1007400041F20020C0F27A004843B0FBF2F0216889
:100750000222C1F3014102EB4101B0FBF1F010BDF7
:100760002DE9F04182B0002868D00446007843F6B5
:100770000006C007C4F202060BD0B06800F00C00FF
:10078000042840F09F803068800302D5606800280C
:1007900054D0207880071AD5B06810F00C0F09D01B
:1007A000B06800F00C00082840F0A6807068400295
:1007B00000F1A2803068800702D5E06801283DD1B1
:1007C0003068216920F0F80040EAC10030602078EC
:1007D000000737D4207840074CD4A56955B3B068DA
:1007E00000F00C00082840F0BB80012D26D0706876
:1007F000E16900F480028A4220D1216A00F03F02C0
:100800008A421BD147F6C071626A0140B1EB821F78
:1008100014D1A16A4FF6FF73C903994300F4403223
:10082000A1F580318A4209D1E16A00F07060B0EB35
:10083000016F03D1002002B0BDE8F081012002B0B9
:10084000BDE8F0816069002840F20000C4F2472052
:1008500076D00121C0F8801EFFF7F4FD054600BFE9
:10086000706F8007B6D4FFF7EDFD401B0228F7D963
:10087000DDE000BF306C10F080580AD100200190FC
:10088000306C40F080503064306C00F0805001904B
:10089000019847F20007C4F200073868C00541D448
:1008A000386840F480703860FFF7CCFD054600BF23
:1008B0003868C00536D4FFF7C5FD401B0228F7D9BC
:1008C000B5E000BFB06800F00C00082803D17068E4
:1008D00040023FF558AF6068B0F5803F07D0B0F5F3
:1008E000A02F40F08D80306840F480203060306868
:1008F00040F4803030608DE0E068002852D0002065
:10090000C4F2472001210160FFF79CFD054600BFAE
:10091000306880073FF554AFFFF794FD401B022875
:10092000F6D984E0A068012805D005284ED1306FA3
:1009300040F004003067306F40F0010030674FE056
:100940000021C0F8801EFFF77DFD0546706F80070F
:100950007FF540AFFFF776FD401B0228F6D966E031
:100960000027C4F2472700203866FFF76BFD022DF1
:1009700005460BD1306880015ED5FFF763FD401B53
:1009800002284FF00300F5D955E700BF3068800119
:100990007FF550AFFFF756FD401B02284FF00300D4
:1009A000F4D948E70020C4F2472000210160FFF796
:1009B00049FD0546306880077FF509AFFFF742FD26
:1009C000401B02284FF00300F4D934E7316F0028B0
:1009D00021F001013167316F21F0040131674DD001
:1009E000FFF730FD054641F2883700BF306F8007C2
:1009F00056D4FFF727FD401BB842F7D917E000BFD8
:100A00003168002821F480313160316821F480217F
:100A100031604FD0FFF716FD054600BF30688003F8
:100A20003FF5B7AEFFF70EFD401B6428F6D9032053
:100A300002B0BDE8F08100BF04F11C052FCD0843D2
:100A400040EA8210D9034FF6FF729143A1F580313D
:100A500040EA05600843706001203866FFF7F2FC49
:100A6000044600BF306880013FF5E4AEFFF7EAFCC2
:100A7000001B02284FF00300F4D9DCE6FFF7E2FC8C
:100A8000054641F2883700BF306F800708D5FFF771
:100A9000D9FC401BB8424FF00300F5D9CBE600BFAC
:100AA000B8F1000F7FF499AE306C20F080503064C4
:100AB00093E600BFFFF7C6FC054600BF3068800321
:100AC0007FF567AEFFF7BEFC401B64284FF00300C4
:100AD000F4D9B0E6411E0020B0EB116F1CBF01201D
:100AE00070474EF21002CEF2000251604EF62351D2
:100AF000CEF20001F0230B70072190601160704767
:100B000070470000704700007047000010B5016892
:100B100004460869800744BFC8685FEA807039D41A
:100B20000869400744BFC8685FEA40703ED408695E
:100B3000000744BFC8685FEA007045D40869C00672
:100B400044BFC8685FEAC0604AD40869C0071CBFD8
:100B5000C8685FEAC07051D10869000644BFC86820
:100B60005FEA006052D40869400644BFC8685FEA83
:100B7000406053D40869800646BFC8685FEA806059
:100B800010BD6FF0200220460A61BDE81040FFF75B
:100B9000B9BF00BF6FF002000861012020778869AB
:100BA000800743D02046FFF7AFFF45E06FF0040019
:100BB000086102202077886910F4407F40D02046E9
:100BC000FFF7A2FF42E000BF6FF0080008610420B9
:100BD0002077C86980073DD02046FFF795FF3FE0AA
:100BE0006FF01000086108202077C86910F4407F7A
:100BF0003AD02046FFF788FF3CE000BF6FF00100CD
:100C00000861204600F03EF82168A5E76FF08000FB
:100C100008612046FFF774FF2168A4E76FF04000E9
:100C20000861204600F03AF82168A3E7204600F06A
:100C300025F8204600F024F82168002020776FE78F
:100C4000204600F01BF8204600F01AF8216800202A
:100C500020776CE7204600F011F8204600F010F8ED
:100C600021680020207769E7204600F007F8204639
:100C700000F006F821680020207766E77047000042
:100C800070470000AFF3008000680021C4F201014A
:100C9000884218BF704700F005B800007047000098
:100CA000FEE7000048F2A820C4F242200168B1FA31
:100CB00081F149090160704782B0002043F630019C
:100CC0000190C4F202010A6842F080020A600A68D8
:100CD00002F080020192019A0090086840F0010041
:100CE0000860086800F001000090009802B07047AA
:100CF000FEE70000FEE700007047000070470000BC
:100D0000FFF7A6BBB0B592B0002443F64000CDE992
:100D10000A44CDE908440594CDE90344CDE90144F2
:100D20000094C4F202000168022541F08051016084
:100D3000006800F080500090009847F20000009496
:100D4000C4F20000016841F4804101600068A821FC
:100D500000F4804000900098012006904FF480300D
:100D600007904FF480000D9004200E90119006A87B
:100D70000C95CDE90F15FFF7F3FC28B1EFF31080C8
:100D800072B600BFFEE700BF0F20CDE901054FF4AA
:100D9000A05004904FF48050059001A805210394C1
:100DA000FFF7F8FB20B1EFF3108072B6FEE700BF4B
:100DB00012B0B0BD4EF68850CEF20000016841F48A
:100DC000700101607047000040F27000C2F2000044
:100DD000FFF79CBEFEE70000FFF748FBFFF792FF1E
:100DE000FFF76AFF00F002F8FEE70000F1EE100ADC
:100DF0004FF6FF71C0F2C03120EA010040F04070B0
:100E0000E1EE100A7047000000000000000001023F
:100E10000304060708090000380E0008000000203F
:100E200010000000C4010008480E00081000002057
:100E3000B0060000E0010008010000001000000002
:080E40000024F4000000000092
:040000050800018965
:00000001FF
